:020000040000FA
:100000000C9462000C948A000C948A000C948A0070
:100010000C948A000C948A000C948A000C948A0038
:100020000C948A000C948A000C948A000C948A0028
:100030000C948A000C948A000C948A000C948A0018
:100040000C94EC010C948A000C945C020C94360223
:100050000C948A000C948A000C948A000C948A00F8
:100060000C948A000C948A000000000025002800EF
:100070002B0000000000240027002A0000000000E0
:1000800023002600290004040404040404040202DA
:100090000202020203030303030301020408102007
:1000A0004080010204081020010204081020000012
:1000B0000008000201000003040700000000000027
:1000C00000004D0311241FBECFEFD8E0DEBFCDBF2F
:1000D00011E0A0E0B1E0E4E0F7E002C005900D928D
:1000E000AC33B107D9F721E0ACE3B1E001C01D9218
:1000F000A23EB207E1F710E0C2E6D0E004C02197CB
:10010000FE010E947A03C136D107C9F70E948E0210
:100110000C9480030C940000E2EBF0E08491EEE993
:10012000F0E09491EAE8F0E0E491EE23C1F1882355
:1001300039F08330E9F090F4813001F1823011F12F
:10014000F0E0EE0FFF1FE458FF4FA591B491EC9142
:10015000E92381E090E029F580E008958730A9F057
:100160008830C9F0843061F7809180008F7D03C0B2
:10017000809180008F7780938000E2CF84B58F7765
:1001800084BDDECF84B58F7DFBCF8091B0008F77AB
:100190008093B000D5CF8091B0008F7DF9CF80E003
:1001A00090E00895AF92BF92CF92DF92EF92FF92CC
:1001B0000F931F93CF93DF936C017B018B01040F8F
:1001C000151FEB015E01AE18BF08C017D10759F02B
:1001D0006991D601ED91FC910190F081E02DC6016D
:1001E0000995892B79F7C501DF91CF911F910F9167
:1001F000FF90EF90DF90CF90BF90AF900895FC01FB
:10020000538D448D252F30E0842F90E0821B930B7B
:10021000541710F0CF96089501970895FC01918D21
:10022000828D981761F0A28DAE0FBF2FB11D5D9624
:100230008C91928D9F5F9F73928F90E008958FEFC6
:100240009FEF0895FC01918D828D981731F0828D7A
:10025000E80FF11D858D90E008958FEF9FEF0895D1
:10026000FC01918D228D892F90E0805C9F4F821B35
:1002700091098F739927089585E491E00E943001D8
:1002800021E0892B09F420E0822F089580E090E09E
:10029000892B29F00E943C0181110C9400000895E3
:1002A000FC01A48DA80FB92FB11DA35ABF4F2C91EB
:1002B000848D90E001968F739927848FA689B789E2
:1002C0002C93A089B1898C91837080648C93938DD9
:1002D000848D981306C00288F389E02D80818F7D7C
:1002E00080830895EF92FF920F931F93CF93DF9334
:1002F000EC0181E0888F9B8D8C8D98131AC0E88962
:10030000F989808185FF15C09FB7F894EE89FF8930
:100310006083E889F98980818370806480839FBFCE
:1003200081E090E0DF91CF911F910F91FF90EF90CE
:100330000895F62E0B8D10E00F5F1F4F0F731127DE
:10034000E02E8C8D8E110CC00FB607FCFACFE88919
:10035000F989808185FFF5CFCE010E945001F1CF50
:10036000EB8DEC0FFD2FF11DE35AFF4FF0829FB78D
:10037000F8940B8FEA89FB8980818062CFCFCF937D
:10038000DF93EC01888D8823B9F0AA89BB89E889BD
:10039000F9898C9185FD03C0808186FD0DC00FB663
:1003A00007FCF7CF8C9185FFF2CF808185FFEDCFE1
:1003B000CE010E945001E9CFDF91CF910895FC0159
:1003C00001900020E9F73197AF01481B590BBC01A0
:1003D00085E491E00C94D2001F920F920FB60F9219
:1003E00011242F933F938F939F93AF93BF9380914B
:1003F000410190914201A0914301B091440130919B
:10040000400123E0230F2D3758F50196A11DB11DA2
:10041000209340018093410190934201A0934301B6
:10042000B093440180913C0190913D01A0913E0127
:10043000B0913F010196A11DB11D80933C019093A5
:100440003D01A0933E01B0933F01BF91AF919F91B9
:100450008F913F912F910F900FBE0F901F90189585
:1004600026E8230F0296A11DB11DD2CF1F920F9235
:100470000FB60F9211242F933F934F935F936F9377
:100480007F938F939F93AF93BF93EF93FF9385E4F5
:1004900091E00E945001FF91EF91BF91AF919F9128
:1004A0008F917F916F915F914F913F912F910F901D
:1004B0000FBE0F901F9018951F920F920FB60F92BC
:1004C00011242F938F939F93EF93FF93E091550106
:1004D000F09156018081E0915B01F0915C0182FD19
:1004E0001BC0908180915E018F5F8F7320915F01AF
:1004F000821741F0E0915E01F0E0EB5BFE4F958FDB
:1005000080935E01FF91EF919F918F912F910F90BA
:100510000FBE0F901F9018958081F4CF789484B50A
:10052000826084BD84B5816084BD85B5826085BDEF
:1005300085B5816085BD80916E00816080936E007D
:10054000109281008091810082608093810080916F
:100550008100816080938100809180008160809320
:1005600080008091B10084608093B1008091B000E0
:1005700081608093B00080917A00846080937A00DB
:1005800080917A00826080937A0080917A00816005
:1005900080937A0080917A00806880937A0010922C
:1005A000C100E0915501F091560182E08083E09115
:1005B0005101F09152011082E0915301F0915401E8
:1005C0008FEC808310925D01E0915901F0915A0106
:1005D00086E08083E0915701F0915801808180612D
:1005E0008083E0915701F091580180818860808379
:1005F000E0915701F0915801808180688083E091FB
:100600005701F091580180818F7D8083EEE9F0E001
:100610002491EAE8F0E084918823C1F090E0880F0B
:10062000991FFC01EE58FF4FC591D491FC01E85988
:10063000FF4FA591B4919FB7F8948881E22FE09580
:100640008E2388838C91E823EC939FBF82E191E015
:100650000E94DF01C0E0D0E00E948C00019741F4CD
:1006600082E291E00E94DF018DE291E00E94DF01D1
:100670000E948C00892B41F480E391E00E94DF010D
:100680008DE291E00E94DF01209731F30E943C014E
:10069000882311F30E940000DFCFE5E4F1E013822C
:1006A000128288EE93E0A0E0B0E084839583A68375
:1006B000B78384E091E09183808385EC90E0958717
:1006C000848784EC90E09787868780EC90E0918B1C
:1006D000808B81EC90E0938B828B82EC90E0958B09
:1006E000848B86EC90E0978B868B118E128E138E06
:1006F000148E0895EE0FFF1F0590F491E02D0994DC
:10070000F894FFCF000000007201D200FF00BF018B
:1007100030010E01220143697263757465207769A7
:1007200074682050420050422050726573736564B3
:10073000000D0A0050422052656C656173656400CB
:107E0000112484B714BE81FFF0D085E080938100F7
:107E100082E08093C00088E18093C10086E0809377
:107E2000C20080E18093C4008EE0C9D0259A86E02C
:107E300020E33CEF91E0309385002093840096BBD3
:107E4000B09BFECF1D9AA8958150A9F7CC24DD24C4
:107E500088248394B5E0AB2EA1E19A2EF3E0BF2EE7
:107E6000A2D0813461F49FD0082FAFD0023811F036
:107E7000013811F484E001C083E08DD089C08234E0
:107E800011F484E103C0853419F485E0A6D080C0E4
:107E9000853579F488D0E82EFF2485D0082F10E0AE
:107EA000102F00270E291F29000F111F8ED06801E7
:107EB0006FC0863521F484E090D080E0DECF843638
:107EC00009F040C070D06FD0082F6DD080E0C81688
:107ED00080E7D80618F4F601B7BEE895C0E0D1E017
:107EE00062D089930C17E1F7F0E0CF16F0E7DF06D8
:107EF00018F0F601B7BEE89568D007B600FCFDCFD4
:107F0000A601A0E0B1E02C9130E011968C91119780
:107F100090E0982F8827822B932B1296FA010C0160
:107F200087BEE89511244E5F5F4FF1E0A038BF0790
:107F300051F7F601A7BEE89507B600FCFDCF97BE46
:107F4000E89526C08437B1F42ED02DD0F82E2BD052
:107F50003CD0F601EF2C8F010F5F1F4F84911BD097
:107F6000EA94F801C1F70894C11CD11CFA94CF0C13
:107F7000D11C0EC0853739F428D08EE10CD085E9AC
:107F80000AD08FE07ACF813511F488E018D01DD067
:107F900080E101D065CF982F8091C00085FFFCCF94
:107FA0009093C60008958091C00087FFFCCF809118
:107FB000C00084FD01C0A8958091C6000895E0E648
:107FC000F0E098E1908380830895EDDF803219F02E
:107FD00088E0F5DFFFCF84E1DECF1F93182FE3DFCA
:107FE0001150E9F7F2DF1F91089580E0E8DFEE27F6
:047FF000FF270994CA
:027FFE00040479
:00000001FF
