:100000000C9481000C94A9000C94A9000C94A900F4
:100010000C94A9000C94A9000C94A9000C94A900BC
:100020000C94A9000C94A9000C94A9000C94A900AC
:100030000C94A9000C94A9000C94A9000C94A9009C
:100040000C9441040C94A9000C94B1040C948B04FE
:100050000C94A9000C94A9000C94A9000C94A9007C
:100060000C94A9000C94A900444854787820746535
:10007000737421004661696C656420746F20726539
:1000800061642066726F6D204448542073656E73FE
:100090006F72210025202054656D70657261747542
:1000A00072653A200000000000240027002A0000AA
:1000B000000000250028002B0000000008000201BD
:1000C0000000030407000000000000000000000022
:1000D000002300260029000404040404040404028C
:1000E00002020202020303030303030102040810D5
:1000F00020408001020408102001020408102000A2
:10010000E30411241FBECFEFD8E0DEBFCDBF11E066
:10011000A0E0B1E0E0EFF1E102C005900D92AE3158
:10012000B107D9F721E0AEE1B1E001C01D92A73DD2
:10013000B207E1F710E0C1E8D0E004C02197FE016A
:100140000E94F008C038D107C9F70E9430050C940E
:10015000F6080C940000CF92DF92EF92FF92CF93BB
:10016000DF93B091CB01A0E08111AB2F8091CC0146
:1001700090E0880F991FAC0143535F4FC090D101AD
:10018000D090D201E090D301F090D40130E020E093
:10019000FA01C591D491E881B90190E080E0EB23A8
:1001A000EA130AC02F5F3F4F6C157D058E059F0532
:1001B00078F36FEF7FEFCB01DF91CF91FF90EF905E
:1001C000DF90CF900895CF93DF9390E0FC01E5514D
:1001D000FF4F249189529F4FFC0184918823D1F0D5
:1001E00090E0880F991FFC01EB55FF4FA591B4914A
:1001F000FC01E155FF4FC591D491623071F49FB776
:10020000F8943C91822F809583238C93E8812E2B48
:1002100028839FBFDF91CF9108958FB7F894EC9119
:100220002E2B2C938FBFF6CF3FB7F89480911F01F0
:1002300090912001A0912101B091220126B5A89BA7
:1002400005C02F3F19F00196A11DB11D3FBFBA2F68
:10025000A92F982F8827BC01CD01620F711D811D28
:10026000911D42E0660F771F881F991F4A95D1F7AD
:1002700008958F929F92AF92BF92CF92DF92EF92AA
:10028000FF924B015C010E9414016B017C010E94F2
:1002900014016C197D098E099F09683E7340810520
:1002A0009105A8F321E0821A9108A108B10888EE0F
:1002B000C80E83E0D81EE11CF11C81149104A10436
:1002C000B10429F7FF90EF90DF90CF90BF90AF90EF
:1002D0009F908F9008958F929F92AF92BF92EF92CE
:1002E000FF920F931F93CF93DF93CDB7DEB7C05428
:1002F000D1400FB6F894DEBF0FBECDBF2FB7F89434
:100300008091230190912401A0912501B0912601B3
:100310002FBF4091CD015091CE016091CF017091DE
:10032000D0018C019D01041B150B260B370BB90165
:10033000A801403D574061057105A0F48091D501A9
:10034000C05CDE4F0FB6F894DEBF0FBECDBFDF91AD
:10035000CF911F910F91FF90EF90BF90AF909F9022
:100360008F9008958093CD019093CE01A093CF01FB
:10037000B093D0011092C8011092C7011092C6012B
:100380001092C5011092C40162E08091C9010E94DF
:10039000E30061E070E080E090E00E94390161E0FC
:1003A0008091C9010E94E3008091C90190E0FC01A5
:1003B000E754FF4F2491FC01E551FF4F3491FC01BC
:1003C000E952FF4FE491EE23D9F0222359F0233074
:1003D00009F44BC008F03EC0213009F44CC0223073
:1003E00009F44DC0F0E0EE0FFF1FE155FF4FA5915E
:1003F000B4918FB7F894EC9130953E233C938FBF26
:100400008091CA018551823008F046C08BE291E1AB
:100410000197F1F762E08091C9010E94E3008091A9
:10042000D60190E08230910538F0880F991F880F2F
:10043000991F05970197F1F7F89480E00E94AB00AF
:100440006F3F7F4F8F4F9F4F71F51092D50178947A
:1004500080E076CF2730B1F02830D1F0243009F099
:10046000C1CF809180008F7D03C0809180008F7705
:1004700080938000B7CF84B58F7784BDB3CF84B528
:100480008F7DFBCF8091B0008F778093B000AACF93
:100490008091B0008F7DF9CF64E170E080E090E062
:1004A0000E943901B7CF81E00E94AB006F3F7F4FC0
:1004B0008F4F9F4F51F2CE0101967C015E019FEB61
:1004C000A91A9EEFB90A870180E00E94AB00F801EB
:1004D000608371838283938381E00E94AB00F80183
:1004E0006483758386839783085F1F4FA016B106C8
:1004F00059F7789430E020E0F70180809180A28065
:10050000B3804481558166817781FFEF8F169F0606
:10051000AF06BF0631F04F3F0FEF5007600770077F
:1005200019F41092D50194CFF90183E0F595E79580
:100530008A95E1F7EC53FE4F8081880F841695066B
:10054000A606B70618F180832F5F3F4F18E0E10E33
:10055000F11C2832310581F64091C8012091C40177
:100560008091C501280F3327331F8091C601280FC2
:10057000311D8091C701820F932F911D9927481734
:10058000190679F681E08093D501DACE8160DBCF60
:10059000AF92BF92CF92DF92EF92FF920F931F9391
:1005A000CF93DF936C017B018B01040F151FEB01CF
:1005B0005E01AE18BF08C017D10759F06991D60186
:1005C000ED91FC910190F081E02DC6010995892BF8
:1005D00079F7C501DF91CF911F910F91FF90EF90B7
:1005E000DF90CF90BF90AF900895FC01538D448D64
:1005F000252F30E0842F90E0821B930B541710F0CE
:10060000CF96089501970895FC01918D828D9817DA
:1006100061F0A28DAE0FBF2FB11D5D968C91928DB2
:100620009F5F9F73928F90E008958FEF9FEF0895E3
:10063000FC01918D828D981731F0828DE80FF11DAC
:10064000858D90E008958FEF9FEF0895FC01918DC7
:10065000228D892F90E0805C9F4F821B91098F73C0
:100660009927089587E291E00E94260321E0892BD3
:1006700009F420E0822F089580E090E0892B29F092
:100680000E94320381110C9400000895FC01A48D96
:10069000A80FB92FB11DA35ABF4F2C91848D90E0A4
:1006A00001968F739927848FA689B7892C93A08987
:1006B000B1898C91837080648C93938D848D981311
:1006C00006C00288F389E02D80818F7D80830895A4
:1006D000EF92FF920F931F93CF93DF93EC0181E092
:1006E000888F9B8D8C8D98131AC0E889F989808139
:1006F00085FF15C09FB7F894EE89FF896083E8896C
:10070000F98980818370806480839FBF81E090E05D
:10071000DF91CF911F910F91FF90EF900895F62EEA
:100720000B8D10E00F5F1F4F0F731127E02E8C8D84
:100730008E110CC00FB607FCFACFE889F9898081C9
:1007400085FFF5CFCE010E944603F1CFEB8DEC0F74
:10075000FD2FF11DE35AFF4FF0829FB7F8940B8FE6
:10076000EA89FB8980818062CFCF0F931F93CF935B
:10077000DF938C01D0E0C0E0F801EC0FFD1F649125
:10078000662341F087E291E00E946803892B11F013
:100790002196F2CFCE01DF91CF911F910F91089555
:1007A000CF93DF93EC01888D8823B9F0AA89BB89A8
:1007B000E889F9898C9185FD03C0808186FD0DC093
:1007C0000FB607FCF7CF8C9185FFF2CF808185FFB4
:1007D000EDCFCE010E944603E9CFDF91CF9108957E
:1007E000FC0101900020E9F73197AF01481B590B3C
:1007F000BC0187E291E00C94C8028F929F92AF9265
:10080000BF920F931F93CF93DF93CDB7DEB7A1971E
:100810000FB6F894DEBF0FBECDBF19A2423008F468
:100820004AE08E010F5D1F4F842E912CB12CA12C1C
:10083000A50194010E94CE08E62FB901CA01EA3051
:10084000F4F4E05DD801EE938D01232B242B252BAE
:1008500079F790E080E0109719F0CD010E94F00345
:10086000A1960FB6F894DEBF0FBECDBFDF91CF913A
:100870001F910F91BF90AF909F908F900895E95C6A
:10088000E1CF1F920F920FB60F9211242F933F9337
:100890008F939F93AF93BF938091230190912401F5
:1008A000A0912501B091260130911E0123E0230F74
:1008B0002D3758F50196A11DB11D20931E0180937F
:1008C000230190932401A0932501B09326018091E8
:1008D0001F0190912001A0912101B0912201019668
:1008E000A11DB11D80931F0190932001A0932101B0
:1008F000B0932201BF91AF919F918F913F912F9122
:100900000F900FBE0F901F90189526E8230F0296A8
:10091000A11DB11DD2CF1F920F920FB60F921124BD
:100920002F933F934F935F936F937F938F939F93F7
:10093000AF93BF93EF93FF9387E291E00E9446034A
:10094000FF91EF91BF91AF919F918F917F916F91A7
:100950005F914F913F912F910F900FBE0F901F907D
:1009600018951F920F920FB60F9211242F938F9309
:100970009F93EF93FF93E0913701F09138018081CD
:10098000E0913D01F0913E0182FD1BC0908180917C
:1009900040018F5F8F7320914101821741F0E091F8
:1009A0004001F0E0E95DFE4F958F80934001FF919B
:1009B000EF919F918F912F910F900FBE0F901F90ED
:1009C00018958081F4CFE7E2F1E01382128288EE7D
:1009D00093E0A0E0B0E084839583A683B78384E0AE
:1009E00091E09183808385EC90E09587848784EC07
:1009F00090E09787868780EC90E0918B808B81ECEC
:100A000090E0938B828B82EC90E0958B848B86ECCC
:100A100090E0978B868B118E128E138E148EA4EC21
:100A2000B1E082E015968C9315978BE016968C9327
:100A30001697EDEEF0E0E4911796EC931797E9ED39
:100A4000F0E0E4911896EC93189740E85EE360E0DC
:100A500070E01D964D935D936D937C935097089530
:100A6000789484B5826084BD84B5816084BD85B589
:100A7000826085BD85B5816085BD80916E00816095
:100A800080936E001092810080918100826080933B
:100A9000810080918100816080938100809180003D
:100AA0008160809380008091B10084608093B10068
:100AB0008091B00081608093B00080917A00846062
:100AC00080937A0080917A00826080937A0080918E
:100AD0007A00816080937A0080917A0080688093A8
:100AE0007A001092C100E0913701F091380182E064
:100AF0008083E0913301F09134011082E09135015F
:100B0000F09136018FEC808310923F01E0913B0120
:100B1000F0913C0186E08083E0913901F0913A0147
:100B2000808180618083E0913901F0913A01808178
:100B300088608083E0913901F0913A01808180687A
:100B40008083E0913901F0913A0180818F7D80832B
:100B500088E690E00E94B50382E191E00E94F003F4
:100B600062E08091C9010E94E3002FB7F894809160
:100B7000230190912401A0912501B09126012FBF5E
:100B8000805D9740A109B1098093CD019093CE017A
:100B9000A093CF01B093D00187E38093D601C0E04A
:100BA000D0E068EE73E080E090E00E9439010E949E
:100BB0006B01882309F45AC08091CA018C3009F472
:100BC00068C048F48B3001F1C12CD12C80ECE82EA8
:100BD0008FE7F82E43C085518230B0F71091C601DF
:100BE000612F70E0762F662766277F778091C70197
:100BF000682B90E080E00E94A5072DEC3CEC4CECCB
:100C00005DE30E945C0861C06091C60170E090E005
:100C100080E00E94A5076B017C011091C70117FFBE
:100C20000AC0AC019B0160E070E080E89FEB0E948D
:100C300004076B017C011F70612F70E090E080E081
:100C40000E94A7072DEC3CEC4CEC5DE30E945C0895
:100C5000A70196010E9405076B017C01A70196017F
:100C6000C701B6010E94C9088823C1F184E790E05A
:100C70000E94B50382E191E00E94F003209709F4FD
:100C800090CF0E943203882309F48BCF0E9400008A
:100C900088CF1091C601612F70E090E080E00E9443
:100CA000A5076B017C016091C7016F7070E090E057
:100CB00080E00E94A7072DEC3CEC4CEC5DE30E9429
:100CC0005C08A70196010E9405076B017C0117FFD4
:100CD000C5CFF7FAF094F7F8F094C0CF84E990E02C
:100CE0000E94B50346015701E894B7F82FEF3FEF94
:100CF0004FE75FE7C501B4010E94C90881110DC02B
:100D00002FEF3FEF4FE75FE7C501B4010E94710786
:100D100018161CF485E191E0AFCF2FEF3FEF4FE7BE
:100D20005FE4C701B6010E94570818161CF489E158
:100D300091E0A2CF2FEF3FEF4FE75FECC701B60185
:100D40000E94710787FDF3CF20E030E0A901C701C1
:100D5000B6010E94710787FF09C06DE287E291E04A
:100D60000E946803F7FAF094F7F8F0942AE037ED60
:100D700043EA5BE3C701B6010E9405074B015C0132
:100D80000E9476076B017C010E94A5079B01AC01C4
:100D9000C501B4010E9404074B015C014AE0C70190
:100DA000B6010E94FD036EE287E291E00E946803B3
:100DB00020E030E040E251E4C501B4010E945C084B
:100DC0004B015C010E9476076B01F12CE12C4AE09B
:100DD000C701B6010E94FD03C701B6010E94A50725
:100DE0009B01AC01C501B4010E94040720E030E082
:100DF00040E251E40E945C080E94760790E080E0A7
:100E00004AE00E94FD033ACF5058BB27AA270E9410
:100E10001C070C941D080E940F0838F00E94160849
:100E200020F039F49F3F19F426F40C940C080EF4CA
:100E3000E095E7FB0C940608E92F0E942E0858F372
:100E4000BA17620773078407950720F079F4A6F5AF
:100E50000C9450080EF4E0950B2EBA2FA02D0B0128
:100E6000B90190010C01CA01A0011124FF27591BEF
:100E700099F0593F50F4503E68F11A16F040A22FF5
:100E8000232F342F4427585FF3CF46953795279566
:100E9000A795F0405395C9F77EF41F16BA0B620B65
:100EA000730B840BBAF09150A1F0FF0FBB1F661FAC
:100EB000771F881FC2F70EC0BA0F621F731F841FEF
:100EC00048F4879577956795B795F7959E3F08F015
:100ED000B0CF9395880F08F09927EE0F97958795D7
:100EE00008950E94E20708F481E008950E94360800
:100EF00088F09F5798F0B92F9927B751B0F0E1F0DB
:100F0000660F771F881F991F1AF0BA95C9F714C08A
:100F1000B13091F00E945008B1E008950C9450084F
:100F2000672F782F8827B85F39F0B93FCCF38695C3
:100F300077956795B395D9F73EF490958095709520
:100F400061957F4F8F4F9F4F0895E89409C097FB9D
:100F50003EF490958095709561957F4F8F4F9F4F90
:100F60009923A9F0F92F96E9BB279395F6958795D4
:100F700077956795B795F111F8CFFAF4BB0F11F497
:100F800060FF1BC06F5F7F4F8F4F9F4F16C088233E
:100F900011F096E911C0772321F09EE8872F762F74
:100FA00005C0662371F096E8862F70E060E02AF0B5
:100FB0009A95660F771F881FDAF7880F96958795A1
:100FC00097F90895990F0008550FAA0BE0E8FEEF76
:100FD00016161706E807F907C0F012161306E407FD
:100FE000F50798F0621B730B840B950B39F40A26F6
:100FF00061F0232B242B252B21F408950A2609F4D4
:10100000A140A6958FEF811D811D089597F99F67D7
:1010100080E870E060E008959FEF80EC0895002480
:101020000A941616170618060906089500240A944D
:1010300012161306140605060895092E0394000CD3
:1010400011F4882352F0BB0F40F4BF2B11F460FF62
:1010500004C06F5F7F4F8F4F9F4F089557FD90588B
:10106000440F551F59F05F3F71F04795880F97FB6C
:10107000991F61F09F3F79F0879508951216130626
:101080001406551FF2CF4695F1DF08C01616170655
:101090001806991FF1CF869571056105089408958A
:1010A000E894BB2766277727CB0197F908950E941C
:1010B000E20708F48FEF08950E946F080C941D0852
:1010C0000E940F0838F00E94160820F0952311F0B6
:1010D0000C9406080C940C0811240C9451080E94DE
:1010E0002E0870F3959FC1F3950F50E0551F629F36
:1010F000F001729FBB27F00DB11D639FAA27F00D71
:10110000B11DAA1F649F6627B00DA11D661F829F97
:101110002227B00DA11D621F739FB00DA11D621F7C
:10112000839FA00D611D221F749F3327A00D611D99
:10113000231F849F600D211D822F762F6A2F11247B
:101140009F5750409AF0F1F088234AF0EE0FFF1FAE
:10115000BB1F661F771F881F91505040A9F79E3F05
:10116000510580F00C9406080C9451085F3FE4F39D
:10117000983ED4F3869577956795B795F795E7955B
:101180009F5FC1F7FE2B880F911D9695879597F964
:1011900008950E94E207880B990B0895A1E21A2E88
:1011A000AA1BBB1BFD010DC0AA1FBB1FEE1FFF1F0B
:1011B000A217B307E407F50720F0A21BB30BE40B5B
:1011C000F50B661F771F881F991F1A9469F76095A2
:1011D0007095809590959B01AC01BD01CF0108955C
:1011E000EE0FFF1F0590F491E02D0994F894FFCFC6
:1011F000000000006803C802F502D00326030403C0
:0E12000018030D0A00696E66006F7666000026
:00000001FF
